:020000023000CC
:10E000000D9472F00D949BF00D949BF00D949BF089
:10E010000D949BF00D949BF00D949BF00D949BF050
:10E020000D949BF00D949BF00D949BF00D949BF040
:10E030000D949BF00D949BF00D949BF00D949BF030
:10E040000D949BF00D949BF00D949BF00D949BF020
:10E050000D949BF00D949BF00D949BF00D949BF010
:10E060000D949BF00D949BF00D949BF00D949BF000
:10E070000D949BF00D949BF00D949BF00D949BF0F0
:10E080000D949BF00D949BF00D949BF00D949BF0E0
:10E090000D949BF00D949BF00D949BF00D949BF0D0
:10E0A0000D949BF00D949BF00D949BF00D949BF0C0
:10E0B0000D949BF00D949BF00D949BF00D949BF0B0
:10E0C0000D949BF00D949BF00D949BF00D949BF0A0
:10E0D0000D949BF00D949BF00D949BF00D949BF090
:10E0E0000D949BF011241FBECFEFD1E2DEBFCDBF58
:10E0F00001E00CBF12E0A0E0B2E0E6EDF8EE03E0D4
:10E100000BBF02C007900D92A030B107D9F712E003
:10E11000A0E0B2E001C01D92A230B107E1F70F9478
:10E12000ABF00D9469F401E20EBF0FEF0DBF1124A7
:10E130001FBE0D94ABF00D9400F020E030E040EDF8
:10E1400057E005C0FA013197F1F72F5F3F4F2817CD
:10E150003907C0F308952F923F924F925F926F92CA
:10E160007F928F929F92AF92BF92CF92DF92EF9267
:10E17000FF920F931F93DF93CF93CDB7DEB7C852B3
:10E18000D1400FB6F894DEBF0FBECDBF94B7F89460
:10E19000A89514BE80916000886180936000109201
:10E1A0006000789493FF05C0E0910002F0910102B5
:10E1B0001995279A2F9A8091C00082608093C000A1
:10E1C00080E18093C40088E18093C1000000EE24C8
:10E1D000FF248701E4E0AE2EB12CCC24DD2424C042
:10E1E000C5010197F1F70894E11CF11C011D111DF7
:10E1F00021E9E2162FE5F20621E0020720E01207EE
:10E2000018F071E0C72ED12CC801B70128E53BE119
:10E2100040E050E00F9447F46115710581059105C8
:10E2200019F485B1805885B98091C00087FD03C07D
:10E23000C114D104A9F2A6014F5F5F4FC25EDE4F49
:10E2400059834883CE51D140C25EDE4F68817981C7
:10E25000CE51D1406130710509F0FCC22224332433
:10E26000A0E0C05EDE4F1882C052D14088249924BD
:10E270005401442455243201ABBEF4018791969198
:10E28000C95DDE4F99838883C752D140DFC2C25E29
:10E29000DE4FE881F981CE51D140319709F53091B7
:10E2A000C600C25EDE4F19821882CE51D14022C014
:10E2B0004F5F5F4F6F4F7F4F4130F2E15F07FAE7EB
:10E2C0006F07F0E07F0780F0C95DDE4F288139815C
:10E2D000C752D1402F5F3F4F19F0EE27FF27099417
:10E2E00040E050E060E070E08091C00087FFE0CF48
:10E2F0003091C600933061F1943028F4913089F068
:10E30000923008F508C0953091F1953040F1963083
:10E3100009F043C03EC03B3109F0B9CF91E0ABE119
:10E32000B6CF313041F0C05EDE4F5881C052D1408F
:10E33000351709F0AAC2A327C05EDE4F3883C0524A
:10E34000D14092E0A4CF132F00E0A32793E09FCF0A
:10E35000832F90E0082B192BA32794E098CF3E3011
:10E3600009F093C2A32795E02224332490CFE1E063
:10E37000F0E0EC0FFD1FE20DF31D30830894211C2B
:10E38000311CA3272016310609F081CF810196E0C8
:10E390007ECF3A1709F079C203C0973009F077CFE2
:10E3A0008981833109F4F4C08431C0F4863009F4E2
:10E3B000C2C0873048F4823069F1833009F45BC011
:10E3C000813009F0C4C141C0813109F465C0823196
:10E3D00008F0ACC0803109F0BAC11CC0883109F422
:10E3E00074C0893150F4853109F4D2C0853108F404
:10E3F00043C1863109F0ABC13FC18A3109F45CC029
:10E400008A3108F482C08B3109F44BC08D3109F098
:10E410009EC102C090E041C08D81803311F090E038
:10E420000AC08F81882311F49EE105C0813011F06C
:10E4300091E001C098E91A821B828D818C831D8234
:10E440009E831F8247E050E086C11A8288E08B835A
:10E4500081E48C8386E58D8382E58E8389E48F83D6
:10E4600083E5888780E589878FE58A8782E38B87C4
:10E470004BE050E070C18A81813941F0823941F02E
:10E48000803911F48FE005C080E003C082E001C054
:10E490008AE01A828B8347C091E01A8242E050E002
:10E4A0005BC18D81882311F48EE129C0813011F088
:10E4B00081E025C088E923C01A82E1E0F0E069E04C
:10E4C00060935700E491EB831CC08B81803589F405
:10E4D0008C81883039F429E0E2E0F0E020935700A5
:10E4E00084910DC029E0E0E0F0E020935700849192
:10E4F00006C0E3E0F0E039E03093570084911A82DF
:10E500008B831C8244E050E026C18D81836C49E0FE
:10E51000E1E0F0E0082E40935700E89507B600FCD4
:10E52000FDCF1A821B8243E050E015C11A824424B9
:10E53000552432010EC18A8190E0A0E0B0E0B82EEF
:10E54000AA24992488248B8190E0A0E0B0E0DC012B
:10E5500099278827882A992AAA2ABB2A8D8190E0A0
:10E56000A0E0B0E0882A992AAA2ABB2A8C8190E0F0
:10E57000A0E0B0E0BA2FA92F982F8827882A992ADF
:10E58000AA2ABB2A880C991CAA1CBB1C1A82E1C0AF
:10E590009A813B81833119F0B501A40169C050E033
:10E5A000451650EC550653E0650650E0750690F4AC
:10E5B00063E0F20160925B0060935700E89507B654
:10E5C00000FCFDCF40E051E060E070E0440E551EDD
:10E5D000661E771ECE5DDE4F9883C252D140CF5D5E
:10E5E000DE4F1882C152D140032F10E0CF5DDE4FC5
:10E5F00068817981C152D140062B172BB501A40146
:10E60000DE011B968C9111962C9111971296CC5D80
:10E61000DE4F2883C452D140CD5DDE4F1882C352F5
:10E62000D14090E0CD5DDE4FE881F981C352D14009
:10E630008E2B9F2B21E00C01FA0160935B0020934D
:10E640005700E89511244E5F5F4F6F4F7F4F025088
:10E650001040C1F635E0F401A0925B003093570002
:10E66000E89507B600FCFDCF81E180935700E8955F
:10E670001A824A015B016DC09A81CA5DDE4F9883A0
:10E68000C652D140CB5DDE4F1882C552D1408B813E
:10E69000C82EDD24CB5DDE4FA881B981C552D140A3
:10E6A000CA2ADB2A1A8289818431E9F4A60123E08F
:10E6B000E22EF12CEC0EFD1EABBEF401879196917B
:10E6C000F7018083918322E030E0E20EF31E62E0E6
:10E6D00070E080E090E0860E971EA81EB91E4250A2
:10E6E000504051F72EC0B501A40193E0E92EF12C62
:10E6F000EC0EFD1E0894C108D108860120E030E030
:10E700000894C11CD11C0F5F1F4F2F4F3F4F080DA6
:10E71000191D2A1D3B1D41BDBB27A72F962F852FF5
:10E7200082BD4F5F5F4F6F4F7F4FF89A80B5D70123
:10E730008D937D01401751076207730761F74A0106
:10E740005B01A6014D5F5F4FF701108204C0F0EC42
:10E75000FA8342E050E090E02BE12093C6008091E4
:10E76000C00086FFFCCF8091C00080648093C00011
:10E77000C05EDE4F3881C052D1403093C6008091D8
:10E78000C00086FFFCCF8091C00080648093C000F1
:10E79000652F5093C6008091C00086FFFCCF80910A
:10E7A000C00080648093C000342F4093C6008091E5
:10E7B000C00086FFFCCF8091C00080648093C000C1
:10E7C0008EE08093C6008091C00086FFFCCF8091D0
:10E7D000C00080648093C000A5E1C05EDE4F7881F8
:10E7E000C052D140A727A327A627FE01319610C00B
:10E7F00030813093C6008091C00086FFFCCF3196F7
:10E800008091C00080648093C000A3274150504095
:10E810004115510569F7A093C6008091C00086FF9D
:10E82000FCCF8091C00080648093C00085B1805887
:10E8300085B9992379F4C05EDE4F8881C052D140FA
:10E840008F5FC05EDE4F8883C052D14090E000E011
:10E8500010E01DCD27982F9880E090E020ED37E064
:10E86000F9013197F1F7019684369105C9F7000057
:10E870008091C0008D7F8093C00081E1809357001C
:10E88000E895EE27FF270994FFCF90E000CDA1E2A5
:10E890001A2EAA1BBB1BFD010DC0AA1FBB1FEE1F1A
:10E8A000FF1FA217B307E407F50720F0A21BB30B65
:10E8B000E40BF50B661F771F881F991F1A9469F7E1
:10E8C00060957095809590959B01AC01BD01CF013D
:06E8D0000895F894FFCF4B
:040000033000E000E9
:00000001FF
